:020000040800F2
:1000000010402DE928409FE50030D4E5000053E37F
:100010000500001A1C309FE5000053E318009F15EF
:100020000000A0110130A0E30030C4E51040BDE89D
:100030001EFF2FE164040020000000003836000895
:100040001C309FE5000053E31EFF2F0110402DE9F7
:1000500010109FE510009FE50000A0E11040BDE8F2
:100060001EFF2FE100000000680400203836000861
:10007000F0309FE5000053E3E4309F0503D0A0E19A
:1000800000200FE10F0012E31500000AD1F021E378
:1000900003D0A0E101AA4DE20A30A0E1D7F021E3AC
:1000A00003D0A0E1013A43E2DBF021E303D0A0E179
:1000B000013A43E2D2F021E303D0A0E1023A43E265
:1000C000D3F021E303D0A0E1023943E2FF30C3E3E0
:1000D000FF3CC3E3043003E5002053E9C02082E382
:1000E00002F021E101A843E20010B0E301B0A0E179
:1000F0000170A0E178009FE578209FE5002052E0A4
:10010000490C00EB60309FE5000053E30100000A5A
:100110000FE0A0E103F0A0E150309FE5000053E3C1
:100120000100000A0FE0A0E103F0A0E10000B0E34D
:100130000010B0E30040B0E10150B0E138009FE5AD
:10014000000050E30100000A30009FE5D50C00EBF1
:10015000130C00EB0400B0E10510B0E1080000FA58
:10016000020C00EB0000080000000000000000008E
:100170000000000064040020E8040020A834000807
:10018000C834000880B500AF00F0AAF800F016F8F7
:1001900001220221064801F007FD064B1A78064BA2
:1001A000DA720549024801F091F900F0EFF8F4E73E
:1001B0000064004080040020A404002080B582B0C8
:1001C00000AF0121012002F08FFD0121082002F083
:1001D0008BFD4FF48073BB804823FB713B1D194698
:1001E0003A4802F03FF84FF40073BB801823FB71CC
:1001F0000323BB713B1D1946344802F033F801213B
:100200004FF4EA1002F0DEF901214FF0007002F025
:1002100089FD2F4800F0E4FE2E4801F097F82D4BA1
:1002200000229A712B4B0022DA712A4B00221A729B
:10023000284B00225A72274B00229A72254B00222B
:10024000DA72244B00229A70224B0022DA70214B82
:1002500002221A711F4B04225A711E4B04221A806B
:100260001C491B4800F0E0FE1B4B00229A721A4BFF
:100270000022DA72184B01221A73174B00221A80DF
:10028000154B00225A80144B00229A80124B0022F8
:10029000DA80114B00221A810F4B01225A730E484B
:1002A00000F092FF0D4B40F221321A600B4B0122FD
:1002B0005A600A4B00225A72084B00221A72074BEE
:1002C00001229A7200BF0837BD4680BD000C014074
:1002D000006400408804002094040020A40400204E
:1002E00080B582B000AF4FF4E06000F0B3FD14239E
:1002F0003B7100237B710023BB710123FB713B1D0C
:10030000184600F0B9FD00BF0837BD4680BD80B477
:1003100085B000AF78600023FB737B6800221A6011
:100320007B6800225A607B6800221A727B68002278
:100330009A727B680022DA740023FB7307E0FB7B70
:100340007A6813440022DA72FB7B0133FB73FB7B78
:10035000072BF4D900BF00BF1437BD4680BC7047DF
:1003600080B483B000AF0023FB800023FB8002E059
:10037000FB880133FB80FB8840F6FE729342F7D97D
:1003800000BF00BF0C37BD4680BC704780B582B04F
:1003900000AF2B4B1B78032B49D801A252F823F056
:1003A000B1030008C703000813040008CD030008C8
:1003B0003B79012B03D1224B01221A703CE0204BE8
:1003C00003221A7038E000F041F835E0FB79012B88
:1003D0000DD11C4B1B78002B03D1194B01221A7035
:1003E00005E0184B1B78013BDAB2164B1A70154B1F
:1003F0001B78002B1DD0BB79002B06D0124B00229E
:100400001A700F4B02221A7013E00D4B03221A7060
:100410000FE000237B710C4800F030F803467B713D
:100420007B79022B07D1064B03221A7003E000BF31
:1004300002E000BF00E000BF00BF0837BD4680BD3E
:100440008104002004000020B804002080B584B09E
:1004500000AF4FF000631B68FB60F86802F073FDAB
:10046000054B1B68BB60BB687B607B68984700BF1F
:100470001037BD4680BD00BF0400000880B584B0C1
:1004800000AF7860786800F023F80346FB73FB7BCD
:1004900018461037BD4680BD80B485B000AF034616
:1004A000FB710023BB730023FB73BB7B0133BB7366
:1004B00005E0FA79BB7B9A4201D10123FB73BB7B38
:1004C000042BF6D9FB7B18461437BD4680BC704719
:1004D00080B584B000AF78607B681B78BB73FB7B12
:1004E0001846FFF7D9FF0346002B01D0052341E052
:1004F000BB7B013B032B32D801A252F823F000BF93
:1005000011050008210500083905000851050008FB
:10051000FFF79CFF2BE0786800F0C0FA0346FB73FE
:10052000FB7B042B1ED0FB7B052BF4D11AE07868F3
:1005300000F086FB0346FB73FB7B042B14D0FB7B94
:10054000052BF4D110E0786800F018F80346FB732F
:10055000FB7B042B0AD0FB7B052BF4D106E00523A3
:100560007B7304E000BF02E000BF00E000BF022395
:100570007B737B7B18461037BD4680BD80B586B047
:1005800000AF78603C4B1B78042B6FD801A252F867
:1005900023F000BF6D060008A90500081906000831
:1005A00027060008650600080023FB750BE0FA7DAE
:1005B000FB7D79688A5C07F118010B4403F80C2C69
:1005C000FB7D0133FB75FB7D072BF0D907F10C0395
:1005D0007968184600F054F80346002B03D0264BE8
:1005E00003221A7043E007F10C03184600F080F86C
:1005F00003467B757B7D012B03D11F4B02221A70B2
:1006000035E07B7D032B03D11B4B02221A702EE0B9
:10061000194B02221A702AE0184B00225A72164B0C
:1006200002221A7023E0154800F03BF80346BB7520
:10063000124B1B7A002B0CD1104B00221A700F4B5F
:1006400000225A720D4B01221A700B4B04221A70B1
:1006500002E0094B02221A700123BB75064B0222ED
:100660001A7004E0044B01221A7000E000BF3B7DC9
:1006700018461837BD4680BD82040020B80400200B
:1006800080B483B000AF786039607B681B78042B3E
:1006900001D1012300E0002318460C37BD4680BC81
:1006A000704780B584B000AF78607B681B78002B02
:1006B0000DD17B681B787B737B681B783B737B7BDE
:1006C0003A7B1146184600F0C7F802230CE07B681D
:1006D0001B78FB737B681B78BB73FB7BBA7B114673
:1006E000184600F0D5F8012318461037BD4680BDE6
:1006F00080B586B000AF78607B681B78BB757B687F
:1007000002331B783B617B680133FB60104B1B6835
:100710000721F86898470346FB72BA7DFB7A9A4234
:100720000FD1386900F063F80346022B06D13B1D58
:10073000184600F00FF80346FB7504E00323FB7531
:1007400001E00523FB75FB7D18461837BD4680BDCB
:100750001000002080B586B000AF78600023FB75E4
:100760007B6802331B781A467B6803331B78183387
:100770009A407B6804331B7810339A407B680533BA
:100780001B78083302FA03F33B617B6806331B785E
:100790001A467B6807331B78083302FA03F3FB81A0
:1007A000FB891946386900F007F80346FB75FB7DA5
:1007B00018461837BD4680BD80B485B000AF78605C
:1007C0000B467B807B68FB607B680133BB607B886A
:1007D000DBB21B12DAB2FB681A707B88DAB2BB6834
:1007E0001A70002318461437BD4680BC704780B489
:1007F00085B000AF78607B6803331B781A467B684E
:1008000002331B781A447B6801331B7808339A4003
:100810007B681B78103302FA03F31B06FB60FB684E
:100820000C4A934294BF01230023DAB2FB686FF0B5
:1008300060418B428CBF01230023DBB21340DBB24B
:10084000002B01D0022300E0032318461437BD46D5
:1008500080BC7047FF0F002080B485B000AF034616
:100860000A46FB711346BB71084A07F1080392E878
:10087000030083E803007F233B72FB797B72BB7923
:10088000BB7200BF1437BD4680BC70472C360008D1
:1008900080B485B000AF03460A46FB711346BB71B6
:1008A000084A07F1080392E8030083E80300FB7994
:1008B0002833DBB23B72BB797B7200BF1437BD4675
:1008C00080BC70472C36000880B584B000AF7860DB
:1008D0007B681B78002B0DD17B681B78FB727B68D3
:1008E0001B78BB72BA7AFB7A11461846FFF7B4FF41
:1008F000022323E07B681B78012B0DD17B681B78DA
:100900007B737B681B783B733A7B7B7B1146184675
:10091000FFF7BEFF012311E07B681B78022B0DD18E
:100920007B681B78FB737B681B78BB73BA7BFB7B94
:1009300011461846FFF7ACFF0323FFE718461037B0
:10094000BD4680BD80B400AF054B1B68002B01D1B4
:10095000012300E000231846BD4680BC704700BF5D
:100960001400002080B584B000AF03460A46FB7136
:100970001346BB71FB794FF4C87202FB03F303F11A
:100980000063FB600123FB72FB79BB720FE00D4B30
:100990001B6898470C4B1B68F86898470346FB7226
:1009A000FB6803F5C873FB60084B1B689847BB7A6C
:1009B0005A1CBA72002BEAD1FB7A18461037BD4692
:1009C00080BD00BF1C00002008000020180000208F
:1009D00080B586B000AF78600023FB757B681B781C
:1009E00001333B617B689B78FB737B68DB78BB736F
:1009F000FB7B3F2B94BF01230023DAB2FB7B0A2B46
:100A00008CBF01230023DBB21340DBB21A46BB7B51
:100A1000352B94BF01230023DBB21340002B0BD0F6
:100A2000BA7BFB7B11461846FFF79CFF0346002B61
:100A300004D10023FB7501E00123FB75FB7D184603
:100A40001837BD4680BD80B485B000AF78607B6844
:100A500003331B781A467B6802331B781A447B6881
:100A600001331B7808339A407B681B78103302FAF5
:100A700003F31B06FB60FB68074A934205D8FB683B
:100A8000B3F1006F01D3002300E0012318461437AF
:100A9000BD4680BC704700BF808B080880B584B01D
:100AA00000AF7860284B1B78002B0ED1FFF74AFF70
:100AB0000346012B06D1244B03221A707B680022C7
:100AC0001A7002E0204B01221A701F4B1B78042B76
:100AD00034D801A252F823F03D0B0008ED0A0008BB
:100AE0003D0B00082B0B00083D0B00087B681846E7
:100AF000FFF76EFF0346BB73BB7B002B0CD1124B81
:100B000003221A707B6800221A70104B01221A709F
:100B1000012000F07BF912E00123BB730A4B032292
:100B20001A707B6800221A7009E07868FFF7CCFE23
:100B3000054B01221A700423FB7300E000BFFB7B0E
:100B400018461037BD4680BD840400208304002071
:100B500080B586B000AF786039600323FB751B4B0E
:100B60001B6898477B6802331B781A467B680333FF
:100B70001B7818339A407B6804331B7810339A40F3
:100B80007B6805331B78083302FA03F33B617B680B
:100B900006331B781A467B6807331B78083302FA42
:100BA00003F3FB810A4B1B68FA89114638699847A1
:100BB0000346002B01D10023FB75064B1B689847A9
:100BC000FB7D18461837BD4680BD00BF1C000020C5
:100BD0000C0000201800002080B586B000AF7860BF
:100BE0007B681B78BB757B6802331B783B617B6835
:100BF0000133FB60114B1B680721F86898470346D7
:100C0000FB72BA7DFB7A9A4211D13869FFF71BFF5C
:100C10000346002B08D13A693B1D11461846FFF7E1
:100C200097FF0346FB7504E00123FB7501E00423F5
:100C3000FB75FB7D18461837BD4680BD10000020AF
:100C400080B58CB000AF78606C4B1B78002B1BD14B
:100C5000002387F82D306A4B1B78002B06D0012328
:100C600087F82D30654B03221A700DE0002387F8BA
:100C70002D3097F82D3019460320FFF7EDFD5F4B1F
:100C800000221A7000237B605C4B1B78042B00F25F
:100C9000AF8001A252F823F0F10D0008AD0C00085E
:100CA000E30D0008C70D0008DB0D0008002387F8DE
:100CB0002F300FE097F82F2097F82F3079688A5C53
:100CC00007F130010B4403F8202C97F82F30013343
:100CD00087F82F3097F82F30072BEBD907F1100347
:100CE0000133BB62BB6A03331B781A46BB6A02330B
:100CF0001B781A44BB6A01331B7808339A40BB6ADD
:100D00001B78103302FA03F31B067B627B7D1A46C5
:100D1000BB7D083302FA03F37B84B86AFFF793FEC6
:100D20000346002B12D17A8C7B6A1344354A9342D6
:100D300006D87B6800221A70304B03221A7005E037
:100D40007B6800221A702D4B03221A70002387F84B
:100D50002E300FE097F82E2097F82E3079688A5CB5
:100D600007F130010B4403F8202C97F82E300133A3
:100D700087F82E3097F82E30072BEBD9BB7A1A461E
:100D8000FB7A18339A403B7B10339A407B7B0833C5
:100D900002FA03F3FB610023BB61BB699A007B6A23
:100DA0001344FA699A420AD17B681846FFF714FF88
:100DB000BB690133BB61114B03221A7019E00F4B61
:100DC00003221A7015E07868FFF77EFD0B4B0222B4
:100DD0001A70002387F82C300BE0084B01221A70A0
:100DE00007E0094B00225A72044B02221A7000E0FD
:100DF00000BF00BF18463037BD4680BD85040020C7
:100E0000830400207F8B0808B804002080B483B0DE
:100E100000AF0346FB7100BF18460C37BD4680BCCF
:100E2000704780B483B000AF0346FB7100BF184623
:100E30000C37BD4680BC704780B400AF0023184615
:100E4000BD4680BC704780B400AF00231846BD4645
:100E500080BC704780B483B000AF7860054A7B687F
:100E600043F0BF6343F40033D36000BF0C37BD468B
:100E700080BC704700ED00E080B487B000AF7860C0
:100E800000237B6100233B610F23FB607B68DB78E1
:100E9000002B3AD0274BDB68DB431B0A03F0070328
:100EA0007B617B69C3F104033B61FA687B6922FAC9
:100EB00003F3FB607B685B781A463B6902FA03F335
:100EC0007B617B689B781A46FB6813407A69134301
:100ED0007B617B691B017B61174A7B681B787969A1
:100EE000C9B213440A4683F800237B681B7803F0D9
:100EF0001F0311497A6812785209D2B210460122B2
:100F000002FA03F341F820300FE07B681B7803F00E
:100F10001F0309497A6812785209D2B21046012299
:100F20009A4000F1200341F8232000BF1C37BD4642
:100F300080BC704700ED00E000E100E080B483B0C9
:100F400000AF786039603B6823F0604323F07F0393
:100F500004497A6813438B6000BF0C37BD4680BCE0
:100F6000704700BF00ED00E080B483B000AF0346DF
:100F70000A46FB711346BB71BB79002B06D0094BA7
:100F80001A69FB79074913430B6106E0054B1A699F
:100F9000FB79DB43034913400B6100BF0C37BD46AF
:100FA00080BC704700ED00E080B483B000AF786093
:100FB0007B68042B06D1094B1B68084A43F00403E5
:100FC000136005E0054B1B68044A23F0040313601B
:100FD00000BF0C37BD4680BC704700BF10E000E08A
:100FE00080B582B000AF78607B680E4A93420AD128
:100FF00001214FF0007001F0D1FE00214FF0007090
:1010000001F0CCFE09E001214FF0806001F0C6FE46
:1010100000214FF0806001F0C1FE00BF0837BD46DF
:1010200080BD00BF0064004080B485B000AF786030
:1010300039600023FB730023BB607B681B6823F0CF
:1010400002027B681A607B681B6843F001027B68C0
:101050001A6002E0BB680133BB607B685B6803F029
:101060000103012B04D0BB684FF6FF729342F1D10C
:101070007B685B6803F00103012B02D00023FB7344
:101080009CE03B689B79012B06D17B681B6843F091
:1010900080027B681A6005E07B681B6823F0800291
:1010A0007B681A603B68DB79012B06D17B681B6883
:1010B00043F040027B681A6005E07B681B6823F000
:1010C00040027B681A603B681B7A012B06D17B6863
:1010D0001B6843F020027B681A6005E07B681B6890
:1010E00023F020027B681A603B685B7A012B06D1F3
:1010F0007B681B6843F010027B681A6005E07B6820
:101100001B6823F010027B681A603B689B7A012BF6
:1011100006D17B681B6843F008027B681A6005E013
:101120007B681B6823F008027B681A603B68DB7AE7
:10113000012B06D17B681B6843F004027B681A60B0
:1011400005E07B681B6823F004027B681A603B683B
:101150009B789A073B68DB781B061A433B681B7930
:101160001B041A433B685B791B051A433B681B88C9
:10117000013B1A437B68DA617B681B6823F001023C
:101180007B681A600023BB6002E0BB680133BB6070
:101190007B685B6803F00103012B04D1BB684FF649
:1011A000FF729342F1D17B685B6803F00103012B6E
:1011B00002D10023FB7301E00123FB73FB7B184684
:1011C0001437BD4680BC704790B484B000AF7860DF
:1011D0000023FB607B689B7A1A4601239340FB60E7
:1011E000594BD3F80032584A43F00103C2F8003299
:1011F000554BD3F81C22FB68DB4353491340C1F81D
:101200001C327B681B7B002B29D14F4BD3F80C225F
:10121000FB68DB434C491340C1F80C327B68DB8828
:101220001B047A685288144647497A68927A1046B5
:1012300043EA040200F1480341F833207B689B88AD
:101240001B047A68128814463F497A68927A1046DD
:1012500043EA040200F14803DB000B445A607B6858
:101260001B7B012B28D1384BD3F80C223649FB6865
:101270001343C1F80C327B681B881B047A685288C0
:10128000144631497A68927A104643EA040200F122
:10129000480341F833207B689B881B047A68D28816
:1012A000144629497A68927A104643EA040200F10A
:1012B0004803DB000B445A607B68DB7A002B09D1C2
:1012C000214BD3F80422FB68DB431F491340C1F8CC
:1012D000043207E01C4BD3F804221B49FB6813437C
:1012E000C1F804327B681B89002B08D1164BD3F858
:1012F0001422FB68DB4314491340C1F814327B68A5
:101300001B89012B07D1104BD3F814220E49FB681F
:101310001343C1F814327B685B7B012B07D10A4B66
:10132000D3F81C220849FB681343C1F81C32064B52
:10133000D3F80032044A23F00103C2F8003200BFA0
:101340001037BD4690BC70470064004080B483B045
:1013500000AF78607B6800229A717B680022DA71A6
:101360007B6800221A727B6800225A727B68002216
:101370009A727B680022DA727B6800229A707B681E
:101380000022DA707B6803221A717B6802225A718C
:101390007B6801221A8000BF0C37BD4680BC7047B5
:1013A00080B483B000AF0346FB71144BD3F8003216
:1013B000124A43F00103C2F80032104BD3F8003256
:1013C0000E4A23F47C5323F00E03C2F800320B4B79
:1013D000D3F80022FB791B0208491343C1F80032FD
:1013E000064BD3F80032054A23F00103C2F800325D
:1013F00000BF0C37BD4680BC704700BF0064004092
:1014000080B483B000AF78600B46FB70FB78002B94
:1014100006D07B681B6843F480327B681A6005E065
:101420007B681B6823F480327B681A6000BF0C372E
:10143000BD4680BC704780B483B000AF78600B4677
:10144000FB70FB78002B1ED07B681B6843F080028A
:101450007B681A607B68D3F8843143F480727B68C0
:10146000C3F884217B68D3F8943143F480727B689D
:10147000C3F894217B68D3F8A43143F480727B686D
:10148000C3F8A4211DE07B681B6823F080027B6801
:101490001A607B68D3F8843123F480727B68C3F8C8
:1014A00084217B68D3F8943123F480727B68C3F87D
:1014B00094217B68D3F8A43123F480727B68C3F84D
:1014C000A42100BF0C37BD4680BC704780B485B0F6
:1014D00000AF786039600023FB737B689B6803F082
:1014E0008063B3F1806F02D10023FB7315E07B684A
:1014F0009B6803F00063B3F1006F02D10123FB731B
:101500000BE07B689B6803F08053B3F1805F02D1EE
:101510000223FB7301E00423FB73FB7B042B00F02D
:101520009F80FB7B7A6818331B0113441A68FB7B8E
:1015300002F00102796818331B010B441A603B6802
:101540001B7A002B13D1FB7B7A6818331B011344E1
:1015500019683B681B685B053A68527A1A43FB7B43
:101560000A43796818331B010B441A6015E0FB7BB2
:101570007A6818331B01134419683B685B68DB0009
:101580003A68127A13433A68527A1A43FB7B0A4349
:10159000796818331B010B441A603B689B7A03F08F
:1015A0000F03DAB23B689A72FB7B7A6818331B012F
:1015B000134404331A68FB7B22F00F027968183356
:1015C0001B010B4404331A60FB7B7A6818331B0140
:1015D000134404331A683B689B7A1946FB7B0A4321
:1015E000796818331B010B4404331A603B689B7BFA
:1015F0001A063B685B7B1B041A433B681B7B1B0280
:101600001A433B68DB7A1946FB7B0A4379681B0166
:101610000B4403F5C4731A603B689B7C1A063B6855
:101620005B7C1B041A433B681B7C1B021A433B6810
:10163000DB7B1946FB7B0A4379681B010B4403F5EE
:10164000C6731A60FB7B7A6818331B0113441A684F
:10165000FB7B42F00102796818331B010B441A60CE
:10166000FB7B18461437BD4680BC704780B485B0FC
:1016700000AF78600B46FB700023FB60FB78022B09
:1016800012D0022B16DC002B02D0012B06D011E069
:101690007B689A68304B1340FB600EE07B689A6869
:1016A0002E4B1340FB6008E07B689A682C4B13407C
:1016B000FB6002E00023FB6000BFFB68284A934206
:1016C0003DD0FB68264A93423CD8FB68254A9342AA
:1016D0002CD0FB68234A934234D8FB681F4A9342BC
:1016E0002AD0FB681D4A93422CD8FB681E4A9342BD
:1016F00019D0FB681C4A934224D8FB68164A9342CF
:1017000017D0FB68144A93421CD8FB68002B04D006
:10171000FB68164A934203D014E00223FB6014E0F6
:101720000023FB6011E00023FB600EE00023FB6060
:101730000BE00123FB6008E00123FB6005E00123CF
:10174000FB6002E00023FB6000BFFB68DBB21846D1
:101750001437BD4680BC7047030000040003000836
:101760000000031000000110000100080100000447
:1017700080B483B000AF78600B46FB70FB78022B1F
:1017800014D0022B19DC002B02D0012B07D014E05F
:101790007B689B6843F080027B689A600EE07B6800
:1017A0009B6843F400427B689A6007E07B689B6813
:1017B00043F400027B689A6000E000BF00BF0C3772
:1017C000BD4680BC704780B485B000AFF8600B4662
:1017D0007A60FB72FB7AFA681B331B0113441B68A7
:1017E000DBB203F00403DAB27B681A727B681B7AFF
:1017F000002B0BD1FB7AFA681B331B0113441B68C7
:101800005B0DC3F30A027B681A600AE0FB7AFA6890
:101810001B331B0113441B68DB0823F060427B6809
:101820005A60FB7AFA681B331B0113441B68DBB256
:1018300003F00203DAB27B685A72FB7AFA681B3350
:101840001B01134404331B68DBB203F00F03DAB24D
:101850007B689A72FB7AFA681B331B0113440433CA
:101860001B681B0ADAB27B68DA74FB7AFA681B0120
:10187000134403F5DC731B68DAB27B68DA72FB7A17
:10188000FA681B01134403F5DC731B681B0ADAB208
:101890007B681A73FB7AFA681B01134403F5DC7347
:1018A0001B681B0CDAB27B685A73FB7AFA681B015F
:1018B000134403F5DC731B681B0EDAB27B689A7362
:1018C000FB7AFA681B01134403F5DE731B68DAB276
:1018D0007B68DA73FB7AFA681B01134403F5DE7345
:1018E0001B681B0ADAB27B681A74FB7AFA681B0160
:1018F000134403F5DE731B681B0CDAB27B685A7461
:10190000FB7AFA681B01134403F5DE731B681B0E98
:10191000DAB27B689A74FB7A002B06D1FB68DB682D
:1019200043F02002FB68DA6005E0FB681B6943F0C6
:101930002002FB681A6100BF1437BD4680BC7047A7
:1019400080B483B000AF78600B46FB70FB78002B4F
:1019500006D17B68DB6843F020027B68DA6005E033
:101960007B681B6943F020027B681A6100BF0C375B
:10197000BD4680BC704780B485B000AF78600B4630
:10198000FB700023FB73FB78002B06D17B68DB68C0
:10199000DBB203F00303FB730BE0FB78012B06D1F2
:1019A0007B681B69DBB203F00303FB7301E00023D8
:1019B000FB73FB7B18461437BD4680BC704780B470
:1019C00085B000AF78600B46FB700023FB734FF6C9
:1019D000FF73BB60FB78002B20D17B681B6823F072
:1019E000030343F001027B681A6002E0BB68013B1D
:1019F000BB607B685B6803F00303012B02D0BB680C
:101A0000002BF3D17B685B6803F00303012B02D04A
:101A10000023FB734AE00123FB7347E0FB78012BB3
:101A20001ED17B681B6823F003027B681A6002E00A
:101A3000BB68013BBB607B685B6803F00303002B62
:101A400002D0BB68002BF3D17B685B6803F0030313
:101A5000002B02D00023FB7328E00123FB7325E059
:101A6000FB78022B20D17B681B6823F0030343F033
:101A700002027B681A6002E0BB68013BBB607B68C6
:101A80005B6803F00303022B02D0BB68002BF3D189
:101A90007B685B6803F00303022B02D00023FB7317
:101AA00004E00123FB7301E00023FB73FB7B18467A
:101AB0001437BD4680BC704780B485B000AF7860F5
:101AC0000023FB737B681B6823F0030343F00202CF
:101AD0007B681A607B685B6803F00303022B01D10B
:101AE0000123FB73FB7B18461437BD4680BC70474F
:101AF00080B485B000AF78604FF6FF73FB600023C1
:101B0000FB727B681B6823F002027B681A6002E0AC
:101B1000FB68013BFB607B685B6803F00203022B00
:101B200002D1FB68002BF3D17B685B6803F00203F2
:101B3000022B01D00123FB72FB7A18461437BD46F5
:101B400080BC704780B485B000AF78600023FB7321
:101B50007B689B69DBB203F07003FB73FB7B184669
:101B60001437BD4680BC704780B485B000AF786044
:101B70000023FB737B689B691B0EFB73FB7B184682
:101B80001437BD4680BC704780B485B000AF786024
:101B90000023FB737B689B691B0CFB73FB7B184664
:101BA0001437BD4680BC704780B485B000AFF86084
:101BB000B9601346FB71FB79002B06D0FB685A69AC
:101BC000BB681A43FB685A6106E0FB685A69BB6848
:101BD000DB431A40FB685A6100BF1437BD4680BC26
:101BE000704780B485B000AF786039600023FB7324
:101BF0003B6803F47003002B0DD07B689A693B6847
:101C00001340C3F31303002B02D00123FB7348E0FE
:101C10000023FB7345E03B6803F08073002B0DD07D
:101C20007B685A683B681340C3F31303002B02D050
:101C30000123FB7335E00023FB7332E03B6803F0C4
:101C40000063002B0DD07B689A683B681340C3F398
:101C50001303002B02D00123FB7322E00023FB734C
:101C60001FE03B6803F00073002B0DD07B68DA683F
:101C70003B681340C3F31303002B02D00123FB7313
:101C80000FE00023FB730CE07B681A693B6813408C
:101C9000C3F31303002B02D00123FB7301E00023E5
:101CA000FB73FB7B18461437BD4680BC704780B47D
:101CB00085B000AF786039600023FB603B68174A4D
:101CC000934203D17B6800229A6121E03B68C3F311
:101CD0001303FB603B6803F00073002B03D07B68A9
:101CE000FA68DA6014E03B6803F08063002B03D0ED
:101CF0007B68FA681A610BE03B6803F00063002B15
:101D000003D07B68FA689A6002E07B68FA685A60E0
:101D100000BF1437BD4680BC704700BF7000F03074
:101D200080B584B000AF786039600023FB737B68B6
:101D30005A693B681340002B00F01B813B68B3F5E8
:101D4000003F00F0DD803B68B3F5003F00F20E81FC
:101D50003B68B3F5803F00F0CA803B68B3F5803F35
:101D600000F204813B68B3F5004F00F0F6803B6859
:101D7000B3F5004F00F2FA803B68B3F5006F00F056
:101D8000E3803B68B3F5006F00F2F0803B68B3F589
:101D9000806F00F0D0803B68B3F5806F00F2E68082
:101DA0003B68B3F5007F00F0BD803B68B3F5007F72
:101DB00000F2DC803B68B3F5807F00F0AA803B68CE
:101DC000B3F5807F00F2D2803B68202B4CD83B6873
:101DD000002B00F0CB803B68013B1F2B00F2C6803C
:101DE00001A252F823F000BF711E0008831E0008F4
:101DF0006D1F0008951E00086D1F00086D1F00086C
:101E00006D1F0008A71E00086D1F00086D1F000849
:101E10006D1F00086D1F00086D1F00086D1F000872
:101E20006D1F0008B91E00086D1F00086D1F000817
:101E30006D1F00086D1F00086D1F00086D1F000852
:101E40006D1F00086D1F00086D1F00086D1F000842
:101E50006D1F00086D1F00086D1F00086D1F000832
:101E60006D1F0008CB1E00083B68402B36D07DE07C
:101E70007B689B684249184600F05EF90346FB7395
:101E800079E07B68DB680321184600F055F90346CA
:101E9000FB7370E07B68DB680821184600F04CF9A2
:101EA0000346FB7367E07B68DB681021184600F08F
:101EB00043F90346FB735EE07B681B690321184608
:101EC00000F03AF90346FB7355E07B681B69082173
:101ED000184600F031F90346FB734CE07B681B6940
:101EE0001021184600F028F90346FB7343E07B6895
:101EF0005B680821184600F01FF90346FB733AE0BF
:101F00007B685B681021184600F016F90346FB73E6
:101F100031E07B689B690121184600F00DF903460A
:101F2000FB7328E07B689B690221184600F004F9E6
:101F30000346FB731FE07B689B690421184600F091
:101F4000FBF80346FB7316E07B689B69702118461B
:101F500000F0F2F80346FB730DE07B685B68042138
:101F6000184600F0E9F80346FB7304E00023FB7316
:101F700001E00023FB73FB7B18461037BD4680BD94
:101F80000101010080B483B000AF786039603B6824
:101F9000B3F5003F00F0AA803B68B3F5003F00F2C4
:101FA000C3803B68B3F5803F00F09C803B68B3F58D
:101FB000803F00F2B9803B68B3F5004F00F0AD8080
:101FC0003B68B3F5004F00F2AF803B68B3F5006F9C
:101FD00000F09C803B68B3F5006F00F2A5803B6881
:101FE000B3F5806F00F08E803B68B3F5806F00F230
:101FF0009B803B68B3F5007F00F080803B68B3F5C1
:10200000007F00F291803B68B3F5807F72D03B681F
:10201000B3F5807F00F288803B68202B4AD83B686C
:10202000002B00F081803B68013B1F2B7CD801A274
:1020300052F823F0BD2000082921000829210008BA
:10204000C5200008292100082921000829210008AD
:10205000CD20000829210008292100082921000895
:102060002921000829210008292100082921000828
:102070002921000829210008292100082921000818
:102080002921000829210008292100082921000808
:1020900029210008292100082921000829210008F8
:1020A00029210008292100082921000829210008E8
:1020B000D52000083B68402B10D035E07B681D4AD6
:1020C0009A6032E07B680822DA602EE07B6810229A
:1020D000DA602AE07B6808221A6126E07B68102219
:1020E0001A6122E07B6808225A601EE07B68102299
:1020F0005A601AE07B6804225A6016E07B6804226A
:102100005A6012E07B6804225A600EE07B6800226D
:102110009A617B6804225A6007E07B6800229A611A
:102120007B6804225A6000E000BF00BF0C37BD4648
:1021300080BC70470101010080B485B000AF7860B9
:1021400039600023FB737A683B681340002B02D090
:102150000123FB7301E00023FB73FB7B184614375C
:10216000BD4680BC704700BF80B582B000AF7860CC
:102170007B682F4A934208D10121042000F0F0FD32
:102180000021042000F0ECFD4EE07B68294A9342D8
:1021900008D10121082000F0E3FD0021082000F013
:1021A000DFFD41E07B68244A934208D101211020E1
:1021B00000F0D6FD0021102000F0D2FD34E07B6855
:1021C0001E4A934208D10121202000F0C9FD0021C0
:1021D000202000F0C5FD27E07B68194A934208D112
:1021E0000121402000F0BCFD0021402000F0B8FD9E
:1021F0001AE07B68134A934208D10121802000F045
:10220000AFFD0021802000F0ABFD0DE07B680E4AA1
:10221000934209D101214FF4807000F0A1FD00210B
:102220004FF4807000F09CFD00BF0837BD4680BDB4
:1022300000080140000C0140001001400014014062
:1022400000180140001C01400020014080B500AF93
:102250000121012000F084FD0021012000F080FD1B
:1022600000BF80BD80B489B000AF786039600023C2
:10227000FB6100233B610023BB610023FB60002363
:102280007B610023BB603B68DB7803F00F03FB61DD
:102290003B68DB7803F01003002B05D03B689B788C
:1022A0001A46FB691343FB613B681B88DBB2002BBA
:1022B00044D07B681B687B610023BB6138E001224E
:1022C000BB6902FA03F3FB603B681B881A46FB6894
:1022D00013403B613A69FB689A4226D1BB699B0077
:1022E000FB600F22FB6802FA03F3BB60BB68DB43B1
:1022F0007A6913407B61FA69FB6802FA03F37A6931
:1023000013437B613B68DB78282B05D10122BB6935
:102310009A407B685A6108E03B68DB78482B04D11F
:102320000122BB699A407B681A61BB690133BB61BA
:10233000BB69072BC3D97B687A691A603B681B8825
:10234000FF2B46D97B685B687B610023BB613AE069
:10235000BB690833012202FA03F3FB603B681B8868
:102360001A46FB6813403B613A69FB689A4227D1E1
:10237000BB699B00FB600F22FB6802FA03F3BB60A2
:10238000BB68DB437A6913407B61FA69FB6802FA38
:1023900003F37A6913437B613B68DB78282B05D113
:1023A000BB69083301229A407B685A613B68DB783D
:1023B000482B05D1BB69083301229A407B681A611A
:1023C000BB690133BB61BB69072BC1D97B687A69E3
:1023D0005A6000BF2437BD4680BC704780B483B0CC
:1023E00000AF78607B684FF6FF721A807B6802222C
:1023F0009A707B680422DA7000BF0C37BD4680BC3F
:10240000704780B485B000AF78600B467B800023B6
:10241000FB737B689A687B881340002B02D00123F2
:10242000FB7301E00023FB73FB7B18461437BD46AA
:1024300080BC704780B483B000AF78607B689B68D5
:102440009BB218460C37BD4680BC704780B485B03F
:1024500000AF78600B467B800023FB737B68DA68F3
:102460007B881340002B02D00123FB7301E0002383
:10247000FB73FB7B18461437BD4680BC704780B4A5
:1024800083B000AF78607B68DB689BB218460C377E
:10249000BD4680BC704780B483B000AF78600B4607
:1024A0007B807A887B681A6100BF0C37BD4680BC90
:1024B000704780B483B000AF78600B467B807A8829
:1024C0007B685A6100BF0C37BD4680BC704780B442
:1024D00083B000AF78600B467B8013467B707B78BF
:1024E000002B03D07A887B681A6102E07A887B68C7
:1024F0005A6100BF0C37BD4680BC704780B483B0C2
:1025000000AF78600B467B807A887B68DA6000BF1A
:102510000C37BD4680BC704780B485B000AF786092
:102520000B467B804FF48033FB607B88FA68134353
:10253000FB607B68FA689A617A887B689A617B683D
:10254000FA689A617B689B69FB607B689B69FB60AA
:1025500000BF1437BD4680BC704780B485B000AF63
:1025600003460A46FB711346BB710023FB600C4B0C
:102570001B68FB60FA684FF680731340FB60FB79C1
:102580001B01FA681343FB60BB79FA681343FB60D5
:10259000034AFB68136000BF1437BD4680BC704718
:1025A0000000014080B483B000AF0346FB71044AD1
:1025B000FB79136000BF0C37BD4680BC704700BF7D
:1025C0001C00204280B487B000AF78600B46FB70DF
:1025D00000233B610023FB6000237B610023BB6081
:1025E0007B68002B03DA2E4BDB697B6102E02C4B0E
:1025F0005B687B617B681B0C03F00F03BB607B682F
:102600009BB23B617B6803F44013B3F5401F0AD1D2
:102610007B6923F070637B61214B5B68204A23F068
:102620007063536021E07B6803F48013002B0ED0AD
:102630000322BB6802FA03F3FB60FB68DB437A69A1
:1026400013407B617B6943F070637B610DE07B68C5
:102650005B0D1B013A6902FA03F3DB437A6913400D
:102660007B617B6943F070637B61FB78002B08D052
:102670007B685B0D1B013A6902FA03F37A69134325
:102680007B617B68002B03DA054A7B69D36102E03A
:10269000034A7B69536000BF1C37BD4680BC70474E
:1026A0000000014080B485B000AF03460A46FB71CC
:1026B0001346BB710023FB60BB7903F003039B004F
:1026C0000F2202FA03F3FB60154ABB799B08DBB2C9
:1026D000023352F82320FB68DB431148B97989089B
:1026E000C9B21A408B1C40F823200D4ABB799B08C5
:1026F000DBB2023352F82320F979BB7903F00303EC
:102700009B0001FA03F30648B9798908C9B21A4354
:102710008B1C40F8232000BF1437BD4680BC704797
:102720000000014080B483B000AF7860034A7B684A
:10273000136000BF0C37BD4680BC7047DC002042F0
:1027400080B400AF134B1B68124A43F001031360BF
:10275000104B5A680F49104B13404B600D4B1B68D0
:102760000C4A23F0847323F480331360094B1B68F5
:10277000084A23F480231360064B5B68054A23F460
:10278000FE035360034B4FF41F029A6000BFBD4627
:1027900080BC7047001002400000FFF880B483B096
:1027A00000AF7860134B1B68124A23F48033136028
:1027B000104B1B680F4A23F4802313607B68B3F52A
:1027C000803F04D07B68B3F5802F07D00DE0094B24
:1027D0001B68084A43F48033136006E0054B1B680E
:1027E000044A43F4A023136000BF00BF0C37BD466A
:1027F00080BC70470010024080B582B000AF00235B
:102800003B600023FB710023BB71312000F014FBFF
:102810000346BB713B6801333B603B68B3F5A06F77
:1028200002D0BB79002BF0D0312000F005FB03462D
:10283000002B02D00123FB7101E00023FB71FB7927
:1028400018460837BD4680BD80B485B000AF03464A
:10285000FB710023FB600A4B1B68FB60FB6823F0E5
:10286000F803FB60FB79DB00FA681343FB60044A62
:10287000FB68136000BF1437BD4680BC704700BFC3
:102880000010024080B483B000AF0346FB71044ADD
:10289000FB79136000BF0C37BD4680BC704700BF9A
:1028A0000000424280B485B000AF786039600023F8
:1028B000FB600A4B5B68FB60FB6823F47C13FB60E6
:1028C0007A683B681343FA681343FB60034AFB686A
:1028D000536000BF1437BD4680BC704700100240F3
:1028E00080B483B000AF0346FB71044AFB791360E8
:1028F00000BF0C37BD4680BC704700BF600042423D
:1029000080B485B000AF78600023FB60094B5B6842
:10291000FB60FB6823F00303FB60FA687B681343EA
:10292000FB60044AFB68536000BF1437BD4680BC9F
:10293000704700BF0010024080B400AF044B5B68DA
:10294000DBB203F00C03DBB21846BD4680BC704717
:102950000010024080B485B000AF78600023FB60B7
:10296000094B5B68FB60FB6823F0F003FB60FA68CF
:102970007B681343FB60044AFB68536000BF143755
:10298000BD4680BC704700BF0010024080B485B0D7
:1029900000AF78600023FB60094B5B68FB60FB685D
:1029A00023F4E063FB60FA687B681343FB60044A2E
:1029B000FB68536000BF1437BD4680BC704700BF42
:1029C0000010024080B485B000AF78600023FB6047
:1029D000094B5B68FB60FB6823F46053FB607B681A
:1029E000DB00FA681343FB60034AFB68536000BFD7
:1029F0001437BD4680BC70470010024080B483B0DD
:102A000000AF03460A46FB711346BB71BB79002B2E
:102A100008D00C4B1B78DAB20A49FB791343DBB2BE
:102A20000B7009E0074B1B78DAB2FB79DB43DBB2B2
:102A300004491340DBB20B7000BF0C37BD4680BCAD
:102A4000704700BF0910024080B483B000AF7860C7
:102A5000034A7B68136000BF0C37BD4680BC7047DB
:102A6000D800424280B485B000AF78600023FB609C
:102A7000094B5B68FB60FB6823F44043FB60FA682A
:102A80007B681343FB60044AFB68536000BF143744
:102A9000BD4680BC704700BF0010024080B483B0C8
:102AA00000AF0346FB710C4B00221A700A4B002248
:102AB0001A70FB79012B02D0042B04D007E0064BDF
:102AC00001221A7003E0044B05221A7000BF00BFF8
:102AD0000C37BD4680BC70472010024080B483B0E4
:102AE00000AF0346FB71044AFB79136000BF0C374B
:102AF000BD4680BC704700BF8004424280B483B0B2
:102B000000AF7860054B1A6A04497B6813430B6277
:102B100000BF0C37BD4680BC704700BF00100240AC
:102B200080B483B000AF0346FB71044AFB791360A5
:102B300000BF0C37BD4680BC704700BF3C0442421A
:102B400080B487B000AF786000237B6100233B61D5
:102B50000023FB600023BB604F4B5B6803F00C035A
:102B60007B617B69082B11D07B69082B3AD87B6984
:102B7000002B03D07B69042B04D033E07B68474AE9
:102B80001A6033E07B68454A1A602FE0424B5B686D
:102B900003F470133B61404B5B6803F48033FB60CC
:102BA0003B699B0C02333B61FB68002B06D13B6900
:102BB0003B4A02FB03F27B681A6017E0364B5B6806
:102BC00003F40033002B06D03B69354A02FB03F2C5
:102BD0007B681A600AE03B69304A02FB03F27B68BB
:102BE0001A6003E07B682D4A1A6000BF2A4B5B68BD
:102BF00003F0F0037B617B691B097B61294A7B69D8
:102C000013441B78DBB2BB607B681A68BB68DA4090
:102C10007B685A60204B5B6803F4E0637B617B69EF
:102C20001B0A7B611F4A7B6913441B78DBB2BB60C4
:102C30007B685A68BB68DA407B689A60164B5B68B1
:102C400003F460537B617B69DB0A7B61154A7B6916
:102C500013441B78DBB2BB607B685A68BB68DA4000
:102C60007B68DA600C4B5B6803F440437B617B69F3
:102C70009B0B7B610C4A7B6913441B78DBB2BB6006
:102C80007B68DA68BB68B2FBF3F27B681A6100BF4D
:102C90001C37BD4680BC70470010024000127A000D
:102CA00000093D00200000203000002080B483B0E7
:102CB00000AF78600B46FB70FB78002B06D0094B09
:102CC0005A6908497B6813434B6106E0054B5A6912
:102CD0007B68DB43034913404B6100BF0C37BD46A3
:102CE00080BC70470010024080B483B000AF7860B1
:102CF0000B46FB70FB78002B06D0094B9A690849FC
:102D00007B6813438B6106E0054B9A697B68DB4364
:102D1000034913408B6100BF0C37BD4680BC704730
:102D20000010024080B483B000AF78600B46FB70A7
:102D3000FB78002B06D0094BDA6908497B681343FE
:102D4000CB6106E0054BDA697B68DB43034913403E
:102D5000CB6100BF0C37BD4680BC704700100240FD
:102D600080B483B000AF78600B46FB70FB78002B1B
:102D700006D0094BDA6808497B681343CB6006E04C
:102D8000054BDA687B68DB4303491340CB6000BF27
:102D90000C37BD4680BC70470010024080B483B041
:102DA00000AF78600B46FB70FB78002B06D0094B18
:102DB0001A6908497B6813430B6106E0054B1A69E1
:102DC0007B68DB43034913400B6100BF0C37BD46F2
:102DD00080BC70470010024080B483B000AF03464F
:102DE000FB71044AFB79136000BF0C37BD4680BC01
:102DF000704700BF4004424280B483B000AF034636
:102E0000FB71044AFB79136000BF0C37BD4680BCE0
:102E1000704700BF4C00424280B483B000AF03460D
:102E2000FB71044AFB79137000BF0C37BD4680BCB0
:102E3000704700BF0710024080B487B000AF034660
:102E4000FB710023FB6000237B610023FB74FB7993
:102E50005B09DBB2FB60FB68012B03D1124B1B68E3
:102E60007B6109E0FB68022B03D10F4B1B6A7B617E
:102E700002E00D4B5B6A7B61FB7903F01F03FB6093
:102E80007A69FB6822FA03F303F00103002B02D0F6
:102E90000123FB7401E00023FB74FB7C18461C3704
:102EA000BD4680BC704700BF0010024080B400AF38
:102EB000044B5B6A034A43F08073536200BFBD4614
:102EC00080BC70470010024080B485B000AF03465C
:102ED000FB710023FB73084B9A68FB791340002BAE
:102EE00002D00123FB7301E00023FB73FB7B184638
:102EF0001437BD4680BC70470010024080B483B0D8
:102F000000AF0346FB71044AFB79137000BF0C3716
:102F1000BD4680BC704700BF0A1002400024EFF39A
:102F20000983184670471C4623461846034683F318
:102F30000988704700BF0024EFF3088318467047E4
:102F40001C4623461846034683F30888704700BF93
:102F500080B483B000AF00237B60EFF312837B600B
:102F60007B6818460C37BD4680BC704780B483B080
:102F700000AF78607B6883F3118800BF0C37BD46D3
:102F800080BC704780B483B000AF00237B60EFF358
:102F900010837B607B6818460C37BD4680BC704749
:102FA00080B483B000AF78607B6883F3108800BF83
:102FB0000C37BD4680BC704780B483B000AF00239F
:102FC0007B60EFF313837B607B6818460C37BD464C
:102FD00080BC704780B483B000AF78607B6883F3B7
:102FE000138800BF0C37BD4680BC704780B483B0E7
:102FF00000AF00237B60EFF314837B607B6818468F
:103000000C37BD4680BC704780B483B000AF786099
:103010007B6883F3148800BF0C37BD4680BC7047C3
:1030200080B485B000AF78600023FB607B681BBA7A
:10303000FB60FB6818461437BD4680BC704780B4FF
:1030400085B000AF0346FB800023FB60FB885BBAC2
:10305000FB60FB6818461437BD4680BC704780B4DF
:1030600085B000AF0346FB800023FB60FB88DBBA22
:10307000FB60FB6818461437BD4680BC704780B4BF
:1030800085B000AF78600023FB607B6893FAA3F300
:10309000FB60FB6818461437BD4680BC704780B49F
:1030A00085B000AF78600023FB737B68D3E84F3FA7
:1030B000FB73FB7B18461437BD4680BC704780B459
:1030C00085B000AF78600023FB817B68D3E85F3F69
:1030D000FB81FB8918461437BD4680BC704780B41D
:1030E00085B000AF78600023FB607B6853E8003F49
:1030F000FB60FB6818461437BD4680BC704780B43F
:1031000085B000AF03463960FB710023FB603A686D
:10311000F979C2E8431FFB60FB6818461437BD46C7
:1031200080BC704780B485B000AF03463960FB8037
:103130000023FB603A68F988C2E8531FFB60FB6814
:1031400018461437BD4680BC704780B485B000AFC8
:10315000786039600023FB603B687A6843E80023AD
:10316000FB60FB6818461437BD4680BC7047000002
:1031700010402DE90010A0E30040A0E17B0000EB2F
:1031800018309FE5000093E53C3090E5000053E3E4
:103190000FE0A01113FF2F110400A0E1150100EBB7
:1031A0003436000870402DE96C609FE56C509FE557
:1031B000056046E04661B0E10700000A0040A0E378
:1031C000045045E20430B5E5014084E20FE0A0E19F
:1031D00013FF2FE1040056E1F9FFFF1A40609FE55D
:1031E00040509FE5056046E0030100EB4661B0E119
:1031F0000700000A0040A0E3045045E20430B5E5B2
:10320000014084E20FE0A0E113FF2FE1040056E14A
:10321000F9FFFF1A7040BDE81EFF2FE1000000001B
:10322000000000000000000000000000030010E3A8
:103230004000000A000052E3012042E21EFF2F017D
:103240000030A0E1FFC001E2020000EA012042E2FA
:10325000010072E31EFF2F0101C0C3E4030013E36A
:10326000F9FFFF1A030052E32800009A70402DE98D
:10327000FFE001E20EE48EE10F0052E30EE88EE182
:103280002E00009A10C042E20F60CCE3205083E28F
:103290002C42A0E1065085E010C083E210E00CE56E
:1032A0000CE00CE508E00CE504E00CE510C08CE255
:1032B00005005CE1F8FFFF1A01C084E20C0012E394
:1032C0000CC283E00F2002E21800000A043042E240
:1032D0000330C3E3043083E203308CE004E08CE489
:1032E0000C0053E1FCFFFF1A032002E2000052E34E
:1032F0000400000AFF1001E2022083E00110C3E491
:10330000030052E1FCFFFF1A7040BDE81EFF2FE1F1
:10331000000052E31EFF2F01FF1001E2022083E0B4
:103320000110C3E4030052E1FCFFFF1A1EFF2FE16E
:103330000C30A0E1ECFFFFEA0030A0E1C8FFFFEA9B
:1033400003C0A0E1E0FFFFEA18309FE5000053E36F
:103350001EFF2F0110402DE90C009FE5510000EBEE
:103360001040BDE81EFF2FE100000000C834000837
:10337000F04F2DE900B0A0E120319FE50CD04DE2E7
:10338000000093E50170A0E104B08DE5630000EB5F
:103390000C319FE5008093E5486198E5000056E315
:1033A0002800000A0190A0E300A0A0E3044096E5F5
:1033B000015054E22300004A014084E2044186E0C7
:1033C000030000EA015045E2010075E3044044E2D5
:1033D0001C00000A000057E30200000A003194E5D7
:1033E000070053E1F6FFFF1A043096E5013043E28F
:1033F000050053E1003094E50450860500A08415D3
:10340000000053E3EEFFFF0A882196E51915A0E1BD
:10341000020011E104B096E51000001A0FE0A0E1EF
:1034200013FF2FE1043096E50B0053E11500001A5D
:10343000483198E5060053E1E1FFFF0A0360A0E18F
:10344000000056E3D8FFFF1A50309FE5000093E5D7
:10345000380000EB0CD08DE2F04FBDE81EFF2FE1ED
:103460008C0196E5000011E10800001A801094E537
:1034700004009DE50FE0A0E113FF2FE1043096E585
:103480000B0053E1E9FFFF0A486198E5EBFFFFEA13
:10349000800094E50FE0A0E113FF2FE1E0FFFFEAD9
:1034A00060040020343600080030A0E310402DE90D
:1034B0000010A0E10320A0E10300A0E11E0000EB4A
:1034C0001040BDE81EFF2FE170402DE930509FE510
:1034D00030409FE5044045E04441B0E10500000A6A
:1034E000043035E5014044E20FE0A0E113FF2FE195
:1034F000000054E3F9FFFF1A450000EB7040BDE8FF
:103500001EFF2FE100000000000000001EFF2FE161
:103510001EFF2FE11EFF2FE11EFF2FE11EFF2FE1F7
:103520001EFF2FE10100A0E31EFF2FE10100A0E339
:103530001EFF2FE11EFF2FE11EFF2FE1F0412DE9BD
:10354000A8809FE50040A0E1000098E50360A0E1AD
:103550000150A0E10270A0E1F0FFFFEB90309FE589
:10356000003093E548C193E500005CE353CF83024C
:1035700004E09CE548C183051F005EE3170000CA14
:10358000000054E30800001A01308EE202E08EE2EF
:10359000000098E504308CE50E518CE7E5FFFFEB69
:1035A0000000A0E3F041BDE81EFF2FE10130A0E3E1
:1035B0000E118CE0887081E588219CE5133EA0E126
:1035C000032082E188218CE5086181E5020054E353
:1035D0008C219C05033082018C318C05E9FFFFEAC8
:1035E000000098E5D3FFFFEB0000E0E3ECFFFFEA0B
:1035F0006004002034360008FEFFFFEA0DC0A0E1A1
:10360000F8DF2DE904B04CE228D04BE2F06F9DE8E2
:103610001EFF2FE10DC0A0E1F8DF2DE904B04CE260
:0C36200028D04BE2F06F9DE81EFF2FE168
:0C362C00AAAAAAAAAAAAAAAA38000020EA
:04363800000000008E
:08363C0034CAFF7F0100000009
:020000042000DA
:1000000000000000F400000018000020280000207C
:1000100074000020040000201400002010000020C4
:10002000000000000102030401020304060708099E
:10003000020406083800002000000000240300200D
:100040008C030020F40300200000000000000000EA
:1000500000000000000000000000000000000000A0
:100060000000000000000000000000000000000090
:100070000000000000000000000000000000000080
:100080000000000000000000000000000000000070
:100090000000000000000000000000000000000060
:1000A0000000000000000000000000000000000050
:1000B0000000000000000000000000000000000040
:1000C0000000000000000000000000000000000030
:1000D0000000000000000000000000000000000020
:1000E00001000000000000000E33CDAB34126DE6BD
:1000F000ECDE05000B000000000000000000000026
:1001000000000000000000000000000000000000EF
:1001100000000000000000000000000000000000DF
:1001200000000000000000000000000000000000CF
:1001300000000000000000000000000000000000BF
:04046000C4040020B0
:04046400400000084C
:040468000000000888
:04046C004833000809
:0400000508000000EF
:00000001FF
